{
  "contractName": "Vote",
  "abi": [
    {
      "inputs": [
        {
          "internalType": "string[]",
          "name": "nameList",
          "type": "string[]"
        }
      ],
      "stateMutability": "nonpayable",
      "type": "constructor"
    },
    {
      "anonymous": false,
      "inputs": [
        {
          "indexed": false,
          "internalType": "string",
          "name": "",
          "type": "string"
        }
      ],
      "name": "voteSuccess",
      "type": "event"
    },
    {
      "inputs": [
        {
          "internalType": "uint256",
          "name": "",
          "type": "uint256"
        }
      ],
      "name": "board",
      "outputs": [
        {
          "internalType": "string",
          "name": "name",
          "type": "string"
        },
        {
          "internalType": "uint256",
          "name": "totalAmount",
          "type": "uint256"
        }
      ],
      "stateMutability": "view",
      "type": "function",
      "constant": true
    },
    {
      "inputs": [],
      "name": "host",
      "outputs": [
        {
          "internalType": "address",
          "name": "",
          "type": "address"
        }
      ],
      "stateMutability": "view",
      "type": "function",
      "constant": true
    },
    {
      "inputs": [
        {
          "internalType": "address",
          "name": "",
          "type": "address"
        }
      ],
      "name": "voters",
      "outputs": [
        {
          "internalType": "uint256",
          "name": "amount",
          "type": "uint256"
        },
        {
          "internalType": "bool",
          "name": "isVoted",
          "type": "bool"
        },
        {
          "internalType": "address",
          "name": "delegator",
          "type": "address"
        },
        {
          "internalType": "uint256",
          "name": "targetId",
          "type": "uint256"
        }
      ],
      "stateMutability": "view",
      "type": "function",
      "constant": true
    },
    {
      "inputs": [],
      "name": "getBoardInfo",
      "outputs": [
        {
          "components": [
            {
              "internalType": "string",
              "name": "name",
              "type": "string"
            },
            {
              "internalType": "uint256",
              "name": "totalAmount",
              "type": "uint256"
            }
          ],
          "internalType": "struct Vote.Board[]",
          "name": "",
          "type": "tuple[]"
        }
      ],
      "stateMutability": "view",
      "type": "function",
      "constant": true
    },
    {
      "inputs": [
        {
          "internalType": "address[]",
          "name": "addressList",
          "type": "address[]"
        }
      ],
      "name": "mandate",
      "outputs": [],
      "stateMutability": "nonpayable",
      "type": "function"
    },
    {
      "inputs": [
        {
          "internalType": "uint256",
          "name": "targetId",
          "type": "uint256"
        }
      ],
      "name": "vore",
      "outputs": [],
      "stateMutability": "nonpayable",
      "type": "function"
    },
    {
      "inputs": [
        {
          "internalType": "address",
          "name": "to",
          "type": "address"
        }
      ],
      "name": "delegate",
      "outputs": [],
      "stateMutability": "nonpayable",
      "type": "function"
    }
  ],
  "bytecode": "0x60806040523480156200001157600080fd5b5060405162001d2538038062001d2583398181016040528101906200003791906200041b565b336000806101000a81548173ffffffffffffffffffffffffffffffffffffffff021916908373ffffffffffffffffffffffffffffffffffffffff16021790555060018060008060009054906101000a900473ffffffffffffffffffffffffffffffffffffffff1673ffffffffffffffffffffffffffffffffffffffff1673ffffffffffffffffffffffffffffffffffffffff1681526020019081526020016000206000018190555060005b81518110156200018457600260405180604001604052808484815181106200010f576200010e6200046c565b5b60200260200101518152602001600081525090806001815401808255809150506001900390600052602060002090600202016000909190919091506000820151816000019081620001619190620006ec565b5060208201518160010155505080806200017b9062000802565b915050620000e2565b50506200084f565b6000604051905090565b600080fd5b600080fd5b600080fd5b6000601f19601f8301169050919050565b7f4e487b7100000000000000000000000000000000000000000000000000000000600052604160045260246000fd5b620001f082620001a5565b810181811067ffffffffffffffff82111715620002125762000211620001b6565b5b80604052505050565b6000620002276200018c565b9050620002358282620001e5565b919050565b600067ffffffffffffffff821115620002585762000257620001b6565b5b602082029050602081019050919050565b600080fd5b600080fd5b600067ffffffffffffffff821115620002915762000290620001b6565b5b6200029c82620001a5565b9050602081019050919050565b60005b83811015620002c9578082015181840152602081019050620002ac565b60008484015250505050565b6000620002ec620002e68462000273565b6200021b565b9050828152602081018484840111156200030b576200030a6200026e565b5b62000318848285620002a9565b509392505050565b600082601f830112620003385762000337620001a0565b5b81516200034a848260208601620002d5565b91505092915050565b60006200036a62000364846200023a565b6200021b565b9050808382526020820190506020840283018581111562000390576200038f62000269565b5b835b81811015620003de57805167ffffffffffffffff811115620003b957620003b8620001a0565b5b808601620003c8898262000320565b8552602085019450505060208101905062000392565b5050509392505050565b600082601f8301126200040057620003ff620001a0565b5b81516200041284826020860162000353565b91505092915050565b60006020828403121562000434576200043362000196565b5b600082015167ffffffffffffffff8111156200045557620004546200019b565b5b6200046384828501620003e8565b91505092915050565b7f4e487b7100000000000000000000000000000000000000000000000000000000600052603260045260246000fd5b600081519050919050565b7f4e487b7100000000000000000000000000000000000000000000000000000000600052602260045260246000fd5b60006002820490506001821680620004ee57607f821691505b602082108103620005045762000503620004a6565b5b50919050565b60008190508160005260206000209050919050565b60006020601f8301049050919050565b60008160020a8302905092915050565b600060088302620005717fffffffffffffffffffffffffffffffffffffffffffffffffffffffffffffffff826200052f565b6200057d86836200052f565b95508019841693508086168417925050509392505050565b6000819050919050565b6000819050919050565b6000620005ca620005c4620005be8462000595565b6200059f565b62000595565b9050919050565b6000819050919050565b620005e683620005a9565b620005fe620005f582620005d1565b8484546200053f565b825550505050565b600090565b6200061562000606565b62000622818484620005db565b505050565b5b818110156200064a576200063e6000826200060b565b60018101905062000628565b5050565b601f821115620006995762000663816200050a565b6200066e846200051f565b810160208510156200067e578190505b620006966200068d856200051f565b83018262000627565b50505b505050565b60008160020a8304905092915050565b6000620006c1600019846008026200069e565b1980831691505092915050565b6000620006dc8383620006ae565b9150826002028217905092915050565b620006f7826200049b565b67ffffffffffffffff811115620007135762000712620001b6565b5b6200071f8254620004d5565b6200072c8282856200064e565b600060209050601f8311600181146200076457600084156200074f578287015190505b6200075b8582620006ce565b865550620007cb565b601f19841662000774866200050a565b60005b828110156200079e5784890151825560018201915060208501945060208101905062000777565b86831015620007be5784890151620007ba601f891682620006ae565b8355505b6001600288020188555050505b505050505050565b7f4e487b7100000000000000000000000000000000000000000000000000000000600052601160045260246000fd5b60006200080f8262000595565b91507fffffffffffffffffffffffffffffffffffffffffffffffffffffffffffffffff8203620008445762000843620007d3565b5b600182019050919050565b6114c6806200085f6000396000f3fe608060405234801561001057600080fd5b506004361061009a576000357c0100000000000000000000000000000000000000000000000000000000900480638760c761116100785780638760c76114610108578063a3ec138d14610124578063ed34c6ee14610157578063f437bc59146101755761009a565b80631b9304511461009f57806328ed6e3f146100bb5780635c19a95c146100ec575b600080fd5b6100b960048036038101906100b49190610c25565b610193565b005b6100d560048036038101906100d09190610c25565b61030e565b6040516100e3929190610cf1565b60405180910390f35b61010660048036038101906101019190610d7f565b6103ca565b005b610122600480360381019061011d9190610e11565b6108cb565b005b61013e60048036038101906101399190610d7f565b610a69565b60405161014e9493929190610e88565b60405180910390f35b61015f610ac6565b60405161016c9190611025565b60405180910390f35b61017d610bc1565b60405161018a9190611047565b60405180910390f35b6000600160003373ffffffffffffffffffffffffffffffffffffffff1673ffffffffffffffffffffffffffffffffffffffff1681526020019081526020016000209050600081600001540361021d576040517f08c379a0000000000000000000000000000000000000000000000000000000008152600401610214906110ae565b60405180910390fd5b8060010160009054906101000a900460ff161561026f576040517f08c379a00000000000000000000000000000000000000000000000000000000081526004016102669061111a565b60405180910390fd5b60018160010160006101000a81548160ff0219169083151502179055508181600201819055508060000154600283815481106102ae576102ad61113a565b5b906000526020600020906002020160010160008282546102ce9190611198565b925050819055507f71811a05f98c0d6a3ee4d373e7d62d53422d5baf858d802816efce275df7d3fa60405161030290611218565b60405180910390a15050565b6002818154811061031e57600080fd5b906000526020600020906002020160009150905080600001805461034190611267565b80601f016020809104026020016040519081016040528092919081815260200182805461036d90611267565b80156103ba5780601f1061038f576101008083540402835291602001916103ba565b820191906000526020600020905b81548152906001019060200180831161039d57829003601f168201915b5050505050908060010154905082565b600160003373ffffffffffffffffffffffffffffffffffffffff1673ffffffffffffffffffffffffffffffffffffffff16815260200190815260200160002060010160009054906101000a900460ff161561045a576040517f08c379a0000000000000000000000000000000000000000000000000000000008152600401610451906112e4565b60405180910390fd5b8073ffffffffffffffffffffffffffffffffffffffff163373ffffffffffffffffffffffffffffffffffffffff16036104c8576040517f08c379a00000000000000000000000000000000000000000000000000000000081526004016104bf90611350565b60405180910390fd5b5b600073ffffffffffffffffffffffffffffffffffffffff16600160008373ffffffffffffffffffffffffffffffffffffffff1673ffffffffffffffffffffffffffffffffffffffff16815260200190815260200160002060010160019054906101000a900473ffffffffffffffffffffffffffffffffffffffff1673ffffffffffffffffffffffffffffffffffffffff161461063757600160008273ffffffffffffffffffffffffffffffffffffffff1673ffffffffffffffffffffffffffffffffffffffff16815260200190815260200160002060010160019054906101000a900473ffffffffffffffffffffffffffffffffffffffff1690508073ffffffffffffffffffffffffffffffffffffffff163373ffffffffffffffffffffffffffffffffffffffff1614610632576040517f08c379a0000000000000000000000000000000000000000000000000000000008152600401610629906113bc565b60405180910390fd5b6104c9565b600160008273ffffffffffffffffffffffffffffffffffffffff1673ffffffffffffffffffffffffffffffffffffffff16815260200190815260200160002060010160009054906101000a900460ff161561075157600160003373ffffffffffffffffffffffffffffffffffffffff1673ffffffffffffffffffffffffffffffffffffffff168152602001908152602001600020600001546002600160008473ffffffffffffffffffffffffffffffffffffffff1673ffffffffffffffffffffffffffffffffffffffff16815260200190815260200160002060020154815481106107255761072461113a565b5b906000526020600020906002020160010160008282546107459190611198565b925050819055506107ed565b600160003373ffffffffffffffffffffffffffffffffffffffff1673ffffffffffffffffffffffffffffffffffffffff16815260200190815260200160002060000154600160008373ffffffffffffffffffffffffffffffffffffffff1673ffffffffffffffffffffffffffffffffffffffff16815260200190815260200160002060000160008282546107e59190611198565b925050819055505b80600160003373ffffffffffffffffffffffffffffffffffffffff1673ffffffffffffffffffffffffffffffffffffffff16815260200190815260200160002060010160016101000a81548173ffffffffffffffffffffffffffffffffffffffff021916908373ffffffffffffffffffffffffffffffffffffffff16021790555060018060003373ffffffffffffffffffffffffffffffffffffffff1673ffffffffffffffffffffffffffffffffffffffff16815260200190815260200160002060010160006101000a81548160ff02191690831515021790555050565b60008054906101000a900473ffffffffffffffffffffffffffffffffffffffff1673ffffffffffffffffffffffffffffffffffffffff163373ffffffffffffffffffffffffffffffffffffffff1614610959576040517f08c379a000000000000000000000000000000000000000000000000000000000815260040161095090611428565b60405180910390fd5b60005b82829050811015610a64576001600084848481811061097e5761097d61113a565b5b90506020020160208101906109939190610d7f565b73ffffffffffffffffffffffffffffffffffffffff1673ffffffffffffffffffffffffffffffffffffffff16815260200190815260200160002060010160009054906101000a900460ff16610a515760018060008585858181106109fa576109f961113a565b5b9050602002016020810190610a0f9190610d7f565b73ffffffffffffffffffffffffffffffffffffffff1673ffffffffffffffffffffffffffffffffffffffff168152602001908152602001600020600001819055505b8080610a5c90611448565b91505061095c565b505050565b60016020528060005260406000206000915090508060000154908060010160009054906101000a900460ff16908060010160019054906101000a900473ffffffffffffffffffffffffffffffffffffffff16908060020154905084565b60606002805480602002602001604051908101604052809291908181526020016000905b82821015610bb85783829060005260206000209060020201604051806040016040529081600082018054610b1d90611267565b80601f0160208091040260200160405190810160405280929190818152602001828054610b4990611267565b8015610b965780601f10610b6b57610100808354040283529160200191610b96565b820191906000526020600020905b815481529060010190602001808311610b7957829003601f168201915b5050505050815260200160018201548152505081526020019060010190610aea565b50505050905090565b60008054906101000a900473ffffffffffffffffffffffffffffffffffffffff1681565b600080fd5b600080fd5b6000819050919050565b610c0281610bef565b8114610c0d57600080fd5b50565b600081359050610c1f81610bf9565b92915050565b600060208284031215610c3b57610c3a610be5565b5b6000610c4984828501610c10565b91505092915050565b600081519050919050565b600082825260208201905092915050565b60005b83811015610c8c578082015181840152602081019050610c71565b60008484015250505050565b6000601f19601f8301169050919050565b6000610cb482610c52565b610cbe8185610c5d565b9350610cce818560208601610c6e565b610cd781610c98565b840191505092915050565b610ceb81610bef565b82525050565b60006040820190508181036000830152610d0b8185610ca9565b9050610d1a6020830184610ce2565b9392505050565b600073ffffffffffffffffffffffffffffffffffffffff82169050919050565b6000610d4c82610d21565b9050919050565b610d5c81610d41565b8114610d6757600080fd5b50565b600081359050610d7981610d53565b92915050565b600060208284031215610d9557610d94610be5565b5b6000610da384828501610d6a565b91505092915050565b600080fd5b600080fd5b600080fd5b60008083601f840112610dd157610dd0610dac565b5b8235905067ffffffffffffffff811115610dee57610ded610db1565b5b602083019150836020820283011115610e0a57610e09610db6565b5b9250929050565b60008060208385031215610e2857610e27610be5565b5b600083013567ffffffffffffffff811115610e4657610e45610bea565b5b610e5285828601610dbb565b92509250509250929050565b60008115159050919050565b610e7381610e5e565b82525050565b610e8281610d41565b82525050565b6000608082019050610e9d6000830187610ce2565b610eaa6020830186610e6a565b610eb76040830185610e79565b610ec46060830184610ce2565b95945050505050565b600081519050919050565b600082825260208201905092915050565b6000819050602082019050919050565b600082825260208201905092915050565b6000610f1582610c52565b610f1f8185610ef9565b9350610f2f818560208601610c6e565b610f3881610c98565b840191505092915050565b610f4c81610bef565b82525050565b60006040830160008301518482036000860152610f6f8282610f0a565b9150506020830151610f846020860182610f43565b508091505092915050565b6000610f9b8383610f52565b905092915050565b6000602082019050919050565b6000610fbb82610ecd565b610fc58185610ed8565b935083602082028501610fd785610ee9565b8060005b858110156110135784840389528151610ff48582610f8f565b9450610fff83610fa3565b925060208a01995050600181019050610fdb565b50829750879550505050505092915050565b6000602082019050818103600083015261103f8184610fb0565b905092915050565b600060208201905061105c6000830184610e79565b92915050565b7f686173206e6f20726967687420746f20766f7465000000000000000000000000600082015250565b6000611098601483610c5d565b91506110a382611062565b602082019050919050565b600060208201905081810360008301526110c78161108b565b9050919050565b7f616c726561647920766f74656400000000000000000000000000000000000000600082015250565b6000611104600d83610c5d565b915061110f826110ce565b602082019050919050565b60006020820190508181036000830152611133816110f7565b9050919050565b7f4e487b7100000000000000000000000000000000000000000000000000000000600052603260045260246000fd5b7f4e487b7100000000000000000000000000000000000000000000000000000000600052601160045260246000fd5b60006111a382610bef565b91506111ae83610bef565b92508282019050808211156111c6576111c5611169565b5b92915050565b7fe68a95e7a5a8e68890e58a9f0000000000000000000000000000000000000000600082015250565b6000611202600c83610c5d565b915061120d826111cc565b602082019050919050565b60006020820190508181036000830152611231816111f5565b9050919050565b7f4e487b7100000000000000000000000000000000000000000000000000000000600052602260045260246000fd5b6000600282049050600182168061127f57607f821691505b60208210810361129257611291611238565b5b50919050565b7fe5a794e68998e4babae5b7b2e7bb8fe68a95e8bf87e7a5a8e4ba860000000000600082015250565b60006112ce601b83610c5d565b91506112d982611298565b602082019050919050565b600060208201905081810360008301526112fd816112c1565b9050919050565b7fe4b88de883bde5a794e68998e7bb99e887aae5b7b10000000000000000000000600082015250565b600061133a601583610c5d565b915061134582611304565b602082019050919050565b600060208201905081810360008301526113698161132d565b9050919050565b7fe4b88de883bde5beaae78eafe68a95e7a5a80000000000000000000000000000600082015250565b60006113a6601283610c5d565b91506113b182611370565b602082019050919050565b600060208201905081810360008301526113d581611399565b9050919050565b7fe6b2a1e69c89e69d83e999900000000000000000000000000000000000000000600082015250565b6000611412600c83610c5d565b915061141d826113dc565b602082019050919050565b6000602082019050818103600083015261144181611405565b9050919050565b600061145382610bef565b91507fffffffffffffffffffffffffffffffffffffffffffffffffffffffffffffffff820361148557611484611169565b5b60018201905091905056fea2646970667358221220edf7062a059d46b127b7480ea0df2ae0d8ff1db585e93ddc1d4a94518de205bb64736f6c63430008120033",
  "immutableReferences": {},
  "source": "//SPDX-License-Identifier:GPL-3.0\r\n// MIT...\r\npragma solidity >=0.4.16 <0.9.0; //solidity\r\n\r\ncontract Vote{\r\n    //\r\n    struct Voter{\r\n        uint256 amount;//\r\n        bool isVoted;//\r\n        address delegator;//\r\n        uint256 targetId;//id\r\n\r\n    }\r\n    //\r\n    struct Board{\r\n        string name;//\r\n        uint256 totalAmount;//\r\n    }\r\n    address public host;//\r\n    //\r\n    mapping(address=>Voter) public voters;\r\n    //\r\n    Board[] public board;\r\n\r\n    constructor(string[] memory nameList){\r\n        host = msg.sender;\r\n        //\r\n        voters[host].amount = 1;\r\n        //board\r\n        for(uint i =0;i < nameList.length;i++){\r\n              board.push(Board(nameList[i],0));\r\n        }\r\n    }\r\n\r\n    //\r\n    event voteSuccess(string);\r\n\r\n    //\r\n    function getBoardInfo () public view returns(Board[] memory){\r\n        return board;\r\n    }\r\n    //\r\n    function mandate(address[] calldata addressList) public {\r\n        //\r\n        require(msg.sender==host,unicode'');\r\n\r\n        for(uint i =0;i < addressList.length;i++){\r\n            //\r\n            if(!voters[addressList[i]].isVoted){\r\n                voters[addressList[i]].amount = 1;\r\n            }\r\n              \r\n        }\r\n    }\r\n\r\n    //\r\n    function vore(uint targetId) public{\r\n        Voter storage sender = voters[msg.sender];\r\n        require(sender.amount!=0, 'has no right to vote');\r\n        require(!sender.isVoted,'already voted');\r\n        sender.isVoted = true;\r\n        sender.targetId = targetId;\r\n        board[targetId].totalAmount +=sender.amount;\r\n        emit voteSuccess(unicode'');\r\n    }\r\n    //\r\n    function delegate(address to) public {\r\n        require(!voters[msg.sender].isVoted,unicode\"\");//\r\n        \r\n        require(msg.sender!=to,unicode\"\");\r\n\r\n        //\r\n        while(voters[to].delegator !=address(0)){\r\n            to = voters[to].delegator;\r\n            require(msg.sender == to,unicode\"\");\r\n        }\r\n\r\n        //\r\n        if(voters[to].isVoted){//\r\n            board[voters[to].targetId].totalAmount +=voters[msg.sender].amount;\r\n            \r\n        }\r\n        else{//\r\n            voters[to].amount +=voters[msg.sender].amount;\r\n        }\r\n        voters[msg.sender].delegator = to;\r\n        voters[msg.sender].isVoted = true;\r\n    }\r\n}\r\n",
  "sourcePath": "F:\\fe\\Web3+vue\\web3_vote\\vote\\contracts\\Vote.sol",
  "compiler": {
    "name": "solc",
    "version": "0.8.18+commit.87f61d96.Emscripten.clang"
  },
  "schemaVersion": "3.4.11",
  "updatedAt": "2023-03-19T06:07:19.700Z",
  "networkType": "ethereum",
  "devdoc": {
    "kind": "dev",
    "methods": {},
    "version": 1
  },
  "userdoc": {
    "kind": "user",
    "methods": {},
    "version": 1
  }
}